{
  "_format": "hh-sol-artifact-1",
  "contractName": "doctor",
  "sourceName": "contracts/doctor.sol",
  "abi": [
    {
      "inputs": [],
      "name": "Doctor",
      "outputs": [],
      "stateMutability": "nonpayable",
      "type": "function"
    },
    {
      "inputs": [],
      "name": "doctorCount",
      "outputs": [
        {
          "internalType": "uint256",
          "name": "",
          "type": "uint256"
        }
      ],
      "stateMutability": "view",
      "type": "function"
    },
    {
      "inputs": [
        {
          "internalType": "uint256",
          "name": "",
          "type": "uint256"
        }
      ],
      "name": "doctorList",
      "outputs": [
        {
          "internalType": "address",
          "name": "",
          "type": "address"
        }
      ],
      "stateMutability": "view",
      "type": "function"
    },
    {
      "inputs": [
        {
          "internalType": "string",
          "name": "_ic",
          "type": "string"
        },
        {
          "internalType": "string",
          "name": "_name",
          "type": "string"
        },
        {
          "internalType": "string",
          "name": "_qualification",
          "type": "string"
        }
      ],
      "name": "editDoctor",
      "outputs": [],
      "stateMutability": "nonpayable",
      "type": "function"
    },
    {
      "inputs": [],
      "name": "getDoctorCount",
      "outputs": [
        {
          "internalType": "uint256",
          "name": "",
          "type": "uint256"
        }
      ],
      "stateMutability": "view",
      "type": "function"
    },
    {
      "inputs": [
        {
          "internalType": "address",
          "name": "_address",
          "type": "address"
        }
      ],
      "name": "getDoctorDetails",
      "outputs": [
        {
          "internalType": "string",
          "name": "ic",
          "type": "string"
        },
        {
          "internalType": "string",
          "name": "name",
          "type": "string"
        },
        {
          "internalType": "string",
          "name": "qualification",
          "type": "string"
        }
      ],
      "stateMutability": "view",
      "type": "function"
    },
    {
      "inputs": [],
      "name": "getDoctors",
      "outputs": [
        {
          "internalType": "address[]",
          "name": "",
          "type": "address[]"
        }
      ],
      "stateMutability": "view",
      "type": "function"
    },
    {
      "inputs": [],
      "name": "owner",
      "outputs": [
        {
          "internalType": "address",
          "name": "",
          "type": "address"
        }
      ],
      "stateMutability": "view",
      "type": "function"
    },
    {
      "inputs": [
        {
          "internalType": "string",
          "name": "_ic",
          "type": "string"
        },
        {
          "internalType": "string",
          "name": "_name",
          "type": "string"
        },
        {
          "internalType": "string",
          "name": "_qualification",
          "type": "string"
        }
      ],
      "name": "setDoctor",
      "outputs": [],
      "stateMutability": "nonpayable",
      "type": "function"
    },
    {
      "inputs": [
        {
          "internalType": "address",
          "name": "patientContractAddress",
          "type": "address"
        },
        {
          "internalType": "address",
          "name": "patientAddr",
          "type": "address"
        }
      ],
      "name": "viewPatientDetails",
      "outputs": [
        {
          "internalType": "string",
          "name": "",
          "type": "string"
        },
        {
          "internalType": "string",
          "name": "",
          "type": "string"
        }
      ],
      "stateMutability": "view",
      "type": "function"
    }
  ],
  "bytecode": "0x6080604052600060045534801561001557600080fd5b50611258806100256000396000f3fe608060405234801561001057600080fd5b506004361061009e5760003560e01c80638da5cb5b116100665780638da5cb5b14610147578063ad0ad05014610165578063b13d5d941461016f578063bab90dbd1461018d578063c83032e0146101bf5761009e565b8063127ca4b4146100a3578063292998bd146100d3578063313f5ecc146100ef57806378522bc41461010b57806379111c1c14610129575b600080fd5b6100bd60048036038101906100b891906108a1565b6101f0565b6040516100ca919061090f565b60405180910390f35b6100ed60048036038101906100e89190610a70565b61022f565b005b61010960048036038101906101049190610a70565b610304565b005b6101136104ad565b6040516101209190610b26565b60405180910390f35b6101316104b3565b60405161013e9190610b26565b60405180910390f35b61014f6104bd565b60405161015c919061090f565b60405180910390f35b61016d6104e1565b005b610177610523565b6040516101849190610bff565b60405180910390f35b6101a760048036038101906101a29190610c4d565b6105b1565b6040516101b693929190610cf9565b60405180910390f35b6101d960048036038101906101d49190610d45565b6107b7565b6040516101e7929190610d85565b60405180910390f35b6001818154811061020057600080fd5b906000526020600020016000915054906101000a900473ffffffffffffffffffffffffffffffffffffffff1681565b600360003373ffffffffffffffffffffffffffffffffffffffff1673ffffffffffffffffffffffffffffffffffffffff16815260200190815260200160002060009054906101000a900460ff1661028557600080fd5b6000600260003373ffffffffffffffffffffffffffffffffffffffff1673ffffffffffffffffffffffffffffffffffffffff1681526020019081526020016000209050838160000190816102d99190610fc8565b50828160010190816102eb9190610fc8565b50818160020190816102fd9190610fc8565b5050505050565b600360003373ffffffffffffffffffffffffffffffffffffffff1673ffffffffffffffffffffffffffffffffffffffff16815260200190815260200160002060009054906101000a900460ff161561035b57600080fd5b6000600260003373ffffffffffffffffffffffffffffffffffffffff1673ffffffffffffffffffffffffffffffffffffffff1681526020019081526020016000209050838160000190816103af9190610fc8565b50828160010190816103c19190610fc8565b50818160020190816103d39190610fc8565b506001339080600181540180825580915050600190039060005260206000200160009091909190916101000a81548173ffffffffffffffffffffffffffffffffffffffff021916908373ffffffffffffffffffffffffffffffffffffffff1602179055506001600360003373ffffffffffffffffffffffffffffffffffffffff1673ffffffffffffffffffffffffffffffffffffffff16815260200190815260200160002060006101000a81548160ff021916908315150217905550600460008154809291906104a2906110c9565b919050555050505050565b60045481565b6000600454905090565b60008054906101000a900473ffffffffffffffffffffffffffffffffffffffff1681565b336000806101000a81548173ffffffffffffffffffffffffffffffffffffffff021916908373ffffffffffffffffffffffffffffffffffffffff160217905550565b606060018054806020026020016040519081016040528092919081815260200182805480156105a757602002820191906000526020600020905b8160009054906101000a900473ffffffffffffffffffffffffffffffffffffffff1673ffffffffffffffffffffffffffffffffffffffff168152602001906001019080831161055d575b5050505050905090565b60608060606000600260008673ffffffffffffffffffffffffffffffffffffffff1673ffffffffffffffffffffffffffffffffffffffff168152602001908152602001600020905080600001816001018260020182805461061190610deb565b80601f016020809104026020016040519081016040528092919081815260200182805461063d90610deb565b801561068a5780601f1061065f5761010080835404028352916020019161068a565b820191906000526020600020905b81548152906001019060200180831161066d57829003601f168201915b5050505050925081805461069d90610deb565b80601f01602080910402602001604051908101604052809291908181526020018280546106c990610deb565b80156107165780601f106106eb57610100808354040283529160200191610716565b820191906000526020600020905b8154815290600101906020018083116106f957829003601f168201915b5050505050915080805461072990610deb565b80601f016020809104026020016040519081016040528092919081815260200182805461075590610deb565b80156107a25780601f10610777576101008083540402835291602001916107a2565b820191906000526020600020905b81548152906001019060200180831161078557829003601f168201915b50505050509050935093509350509193909250565b60608060008490506000808273ffffffffffffffffffffffffffffffffffffffff16630e9a705a87336040518363ffffffff1660e01b81526004016107fd929190611111565b600060405180830381865afa15801561081a573d6000803e3d6000fd5b505050506040513d6000823e3d601f19601f8201168201806040525081019061084391906111aa565b915091508181945094505050509250929050565b6000604051905090565b600080fd5b600080fd5b6000819050919050565b61087e8161086b565b811461088957600080fd5b50565b60008135905061089b81610875565b92915050565b6000602082840312156108b7576108b6610861565b5b60006108c58482850161088c565b91505092915050565b600073ffffffffffffffffffffffffffffffffffffffff82169050919050565b60006108f9826108ce565b9050919050565b610909816108ee565b82525050565b60006020820190506109246000830184610900565b92915050565b600080fd5b600080fd5b6000601f19601f8301169050919050565b7f4e487b7100000000000000000000000000000000000000000000000000000000600052604160045260246000fd5b61097d82610934565b810181811067ffffffffffffffff8211171561099c5761099b610945565b5b80604052505050565b60006109af610857565b90506109bb8282610974565b919050565b600067ffffffffffffffff8211156109db576109da610945565b5b6109e482610934565b9050602081019050919050565b82818337600083830152505050565b6000610a13610a0e846109c0565b6109a5565b905082815260208101848484011115610a2f57610a2e61092f565b5b610a3a8482856109f1565b509392505050565b600082601f830112610a5757610a5661092a565b5b8135610a67848260208601610a00565b91505092915050565b600080600060608486031215610a8957610a88610861565b5b600084013567ffffffffffffffff811115610aa757610aa6610866565b5b610ab386828701610a42565b935050602084013567ffffffffffffffff811115610ad457610ad3610866565b5b610ae086828701610a42565b925050604084013567ffffffffffffffff811115610b0157610b00610866565b5b610b0d86828701610a42565b9150509250925092565b610b208161086b565b82525050565b6000602082019050610b3b6000830184610b17565b92915050565b600081519050919050565b600082825260208201905092915050565b6000819050602082019050919050565b610b76816108ee565b82525050565b6000610b888383610b6d565b60208301905092915050565b6000602082019050919050565b6000610bac82610b41565b610bb68185610b4c565b9350610bc183610b5d565b8060005b83811015610bf2578151610bd98882610b7c565b9750610be483610b94565b925050600181019050610bc5565b5085935050505092915050565b60006020820190508181036000830152610c198184610ba1565b905092915050565b610c2a816108ee565b8114610c3557600080fd5b50565b600081359050610c4781610c21565b92915050565b600060208284031215610c6357610c62610861565b5b6000610c7184828501610c38565b91505092915050565b600081519050919050565b600082825260208201905092915050565b60005b83811015610cb4578082015181840152602081019050610c99565b60008484015250505050565b6000610ccb82610c7a565b610cd58185610c85565b9350610ce5818560208601610c96565b610cee81610934565b840191505092915050565b60006060820190508181036000830152610d138186610cc0565b90508181036020830152610d278185610cc0565b90508181036040830152610d3b8184610cc0565b9050949350505050565b60008060408385031215610d5c57610d5b610861565b5b6000610d6a85828601610c38565b9250506020610d7b85828601610c38565b9150509250929050565b60006040820190508181036000830152610d9f8185610cc0565b90508181036020830152610db38184610cc0565b90509392505050565b7f4e487b7100000000000000000000000000000000000000000000000000000000600052602260045260246000fd5b60006002820490506001821680610e0357607f821691505b602082108103610e1657610e15610dbc565b5b50919050565b60008190508160005260206000209050919050565b60006020601f8301049050919050565b600082821b905092915050565b600060088302610e7e7fffffffffffffffffffffffffffffffffffffffffffffffffffffffffffffffff82610e41565b610e888683610e41565b95508019841693508086168417925050509392505050565b6000819050919050565b6000610ec5610ec0610ebb8461086b565b610ea0565b61086b565b9050919050565b6000819050919050565b610edf83610eaa565b610ef3610eeb82610ecc565b848454610e4e565b825550505050565b600090565b610f08610efb565b610f13818484610ed6565b505050565b5b81811015610f3757610f2c600082610f00565b600181019050610f19565b5050565b601f821115610f7c57610f4d81610e1c565b610f5684610e31565b81016020851015610f65578190505b610f79610f7185610e31565b830182610f18565b50505b505050565b600082821c905092915050565b6000610f9f60001984600802610f81565b1980831691505092915050565b6000610fb88383610f8e565b9150826002028217905092915050565b610fd182610c7a565b67ffffffffffffffff811115610fea57610fe9610945565b5b610ff48254610deb565b610fff828285610f3b565b600060209050601f8311600181146110325760008415611020578287015190505b61102a8582610fac565b865550611092565b601f19841661104086610e1c565b60005b8281101561106857848901518255600182019150602085019450602081019050611043565b868310156110855784890151611081601f891682610f8e565b8355505b6001600288020188555050505b505050505050565b7f4e487b7100000000000000000000000000000000000000000000000000000000600052601160045260246000fd5b60006110d48261086b565b91507fffffffffffffffffffffffffffffffffffffffffffffffffffffffffffffffff82036111065761110561109a565b5b600182019050919050565b60006040820190506111266000830185610900565b6111336020830184610900565b9392505050565b600061114d611148846109c0565b6109a5565b9050828152602081018484840111156111695761116861092f565b5b611174848285610c96565b509392505050565b600082601f8301126111915761119061092a565b5b81516111a184826020860161113a565b91505092915050565b600080604083850312156111c1576111c0610861565b5b600083015167ffffffffffffffff8111156111df576111de610866565b5b6111eb8582860161117c565b925050602083015167ffffffffffffffff81111561120c5761120b610866565b5b6112188582860161117c565b915050925092905056fea2646970667358221220b39b1320a4c2c33a946fa817be9d573f2db743c7b71c8b6ba033b1e3f232bcc564736f6c63430008110033",
  "linkReferences": {},
  "deployedLinkReferences": {}
}