{
  "_format": "hh-sol-artifact-1",
  "contractName": "patient",
  "sourceName": "contracts/patient.sol",
  "abi": [
    {
      "anonymous": false,
      "inputs": [
        {
          "indexed": true,
          "internalType": "address",
          "name": "patientAddress",
          "type": "address"
        },
        {
          "indexed": true,
          "internalType": "address",
          "name": "doctorAddress",
          "type": "address"
        }
      ],
      "name": "AccessGranted",
      "type": "event"
    },
    {
      "anonymous": false,
      "inputs": [
        {
          "indexed": true,
          "internalType": "address",
          "name": "patientAddress",
          "type": "address"
        },
        {
          "indexed": false,
          "internalType": "string",
          "name": "ic",
          "type": "string"
        },
        {
          "indexed": false,
          "internalType": "string",
          "name": "name",
          "type": "string"
        },
        {
          "indexed": false,
          "internalType": "string",
          "name": "diagnostic",
          "type": "string"
        }
      ],
      "name": "PatientEdited",
      "type": "event"
    },
    {
      "anonymous": false,
      "inputs": [
        {
          "indexed": true,
          "internalType": "address",
          "name": "patientAddress",
          "type": "address"
        },
        {
          "indexed": false,
          "internalType": "string",
          "name": "ic",
          "type": "string"
        },
        {
          "indexed": false,
          "internalType": "string",
          "name": "name",
          "type": "string"
        },
        {
          "indexed": false,
          "internalType": "string",
          "name": "diagnostic",
          "type": "string"
        }
      ],
      "name": "PatientRegistered",
      "type": "event"
    },
    {
      "inputs": [],
      "name": "Patient",
      "outputs": [],
      "stateMutability": "nonpayable",
      "type": "function"
    },
    {
      "inputs": [
        {
          "internalType": "address",
          "name": "_address",
          "type": "address"
        }
      ],
      "name": "RevokePermission",
      "outputs": [
        {
          "internalType": "bool",
          "name": "success",
          "type": "bool"
        }
      ],
      "stateMutability": "nonpayable",
      "type": "function"
    },
    {
      "inputs": [
        {
          "internalType": "string",
          "name": "_ic",
          "type": "string"
        },
        {
          "internalType": "string",
          "name": "_name",
          "type": "string"
        },
        {
          "internalType": "string",
          "name": "_diagnostic",
          "type": "string"
        }
      ],
      "name": "editDetails",
      "outputs": [],
      "stateMutability": "nonpayable",
      "type": "function"
    },
    {
      "inputs": [],
      "name": "getPatientCount",
      "outputs": [
        {
          "internalType": "uint256",
          "name": "",
          "type": "uint256"
        }
      ],
      "stateMutability": "view",
      "type": "function"
    },
    {
      "inputs": [
        {
          "internalType": "address",
          "name": "_address",
          "type": "address"
        }
      ],
      "name": "getPatientDetails",
      "outputs": [
        {
          "internalType": "string",
          "name": "ic",
          "type": "string"
        },
        {
          "internalType": "string",
          "name": "name",
          "type": "string"
        },
        {
          "internalType": "string",
          "name": "diagnostic",
          "type": "string"
        }
      ],
      "stateMutability": "view",
      "type": "function"
    },
    {
      "inputs": [],
      "name": "getPatients",
      "outputs": [
        {
          "internalType": "address[]",
          "name": "",
          "type": "address[]"
        }
      ],
      "stateMutability": "view",
      "type": "function"
    },
    {
      "inputs": [],
      "name": "getPermissionGrantedCount",
      "outputs": [
        {
          "internalType": "uint256",
          "name": "",
          "type": "uint256"
        }
      ],
      "stateMutability": "view",
      "type": "function"
    },
    {
      "inputs": [
        {
          "internalType": "address",
          "name": "_address",
          "type": "address"
        }
      ],
      "name": "givePermission",
      "outputs": [
        {
          "internalType": "bool",
          "name": "success",
          "type": "bool"
        }
      ],
      "stateMutability": "nonpayable",
      "type": "function"
    },
    {
      "inputs": [],
      "name": "owner",
      "outputs": [
        {
          "internalType": "address",
          "name": "",
          "type": "address"
        }
      ],
      "stateMutability": "view",
      "type": "function"
    },
    {
      "inputs": [],
      "name": "patientCount",
      "outputs": [
        {
          "internalType": "uint256",
          "name": "",
          "type": "uint256"
        }
      ],
      "stateMutability": "view",
      "type": "function"
    },
    {
      "inputs": [
        {
          "internalType": "uint256",
          "name": "",
          "type": "uint256"
        }
      ],
      "name": "patientList",
      "outputs": [
        {
          "internalType": "address",
          "name": "",
          "type": "address"
        }
      ],
      "stateMutability": "view",
      "type": "function"
    },
    {
      "inputs": [],
      "name": "permissionGrantedCount",
      "outputs": [
        {
          "internalType": "uint256",
          "name": "",
          "type": "uint256"
        }
      ],
      "stateMutability": "view",
      "type": "function"
    },
    {
      "inputs": [
        {
          "internalType": "string",
          "name": "_ic",
          "type": "string"
        },
        {
          "internalType": "string",
          "name": "_name",
          "type": "string"
        },
        {
          "internalType": "string",
          "name": "_diagnostic",
          "type": "string"
        }
      ],
      "name": "setDetails",
      "outputs": [],
      "stateMutability": "nonpayable",
      "type": "function"
    }
  ],
  "bytecode": "0x60806040526000600555600060065534801561001a57600080fd5b506116758061002a6000396000f3fe608060405234801561001057600080fd5b50600436106100cf5760003560e01c8063a0303c411161008c578063c0cb24ba11610066578063c0cb24ba14610202578063c190665b14610220578063efe2ccc11461023e578063f0da708714610270576100cf565b8063a0303c41146101aa578063ac40c9a8146101c8578063babb1d41146101d2576100cf565b806302516abd146100d457806312ad1c37146101045780632221c33b1461012257806324c24b2b1461013e5780633d391f701461015c5780638da5cb5b1461018c575b600080fd5b6100ee60048036038101906100e99190610d14565b61028c565b6040516100fb9190610d5c565b60405180910390f35b61010c61032b565b6040516101199190610e35565b60405180910390f35b61013c60048036038101906101379190610f9d565b6103b9565b005b61014661056c565b604051610153919061105d565b60405180910390f35b61017660048036038101906101719190610d14565b610576565b6040516101839190610d5c565b60405180910390f35b610194610688565b6040516101a19190611087565b60405180910390f35b6101b26106ac565b6040516101bf919061105d565b60405180910390f35b6101d06106b2565b005b6101ec60048036038101906101e791906110ce565b6106f4565b6040516101f99190611087565b60405180910390f35b61020a610733565b604051610217919061105d565b60405180910390f35b610228610739565b604051610235919061105d565b60405180910390f35b61025860048036038101906102539190610d14565b610743565b6040516102679392919061117a565b60405180910390f35b61028a60048036038101906102859190610f9d565b610a12565b005b600080600360003373ffffffffffffffffffffffffffffffffffffffff1673ffffffffffffffffffffffffffffffffffffffff16815260200190815260200160002060008473ffffffffffffffffffffffffffffffffffffffff1673ffffffffffffffffffffffffffffffffffffffff16815260200190815260200160002060006101000a81548160ff02191690831515021790555060019050919050565b606060018054806020026020016040519081016040528092919081815260200182805480156103af57602002820191906000526020600020905b8160009054906101000a900473ffffffffffffffffffffffffffffffffffffffff1673ffffffffffffffffffffffffffffffffffffffff1681526020019060010190808311610365575b5050505050905090565b600460003373ffffffffffffffffffffffffffffffffffffffff1673ffffffffffffffffffffffffffffffffffffffff16815260200190815260200160002060009054906101000a900460ff16610445576040517f08c379a000000000000000000000000000000000000000000000000000000000815260040161043c90611238565b60405180910390fd5b600460003373ffffffffffffffffffffffffffffffffffffffff1673ffffffffffffffffffffffffffffffffffffffff16815260200190815260200160002060009054906101000a900460ff1661049b57600080fd5b6000600260003373ffffffffffffffffffffffffffffffffffffffff1673ffffffffffffffffffffffffffffffffffffffff1681526020019081526020016000209050838160000190816104ef9190611464565b50828160010190816105019190611464565b50818160020190816105139190611464565b503373ffffffffffffffffffffffffffffffffffffffff167f3ae6978e51be41bf5eaf184763eef3e34545a0fd8482b4e294c7c730046e684485858560405161055e9392919061117a565b60405180910390a250505050565b6000600654905090565b60006001600360003373ffffffffffffffffffffffffffffffffffffffff1673ffffffffffffffffffffffffffffffffffffffff16815260200190815260200160002060008473ffffffffffffffffffffffffffffffffffffffff1673ffffffffffffffffffffffffffffffffffffffff16815260200190815260200160002060006101000a81548160ff0219169083151502179055506006600081548092919061062090611565565b91905055508173ffffffffffffffffffffffffffffffffffffffff163373ffffffffffffffffffffffffffffffffffffffff167f9f520b3bfc56d06f7065d10b4683b3f57ac8895d5026cd176dee95ce1454cb8d60405160405180910390a360019050919050565b60008054906101000a900473ffffffffffffffffffffffffffffffffffffffff1681565b60055481565b336000806101000a81548173ffffffffffffffffffffffffffffffffffffffff021916908373ffffffffffffffffffffffffffffffffffffffff160217905550565b6001818154811061070457600080fd5b906000526020600020016000915054906101000a900473ffffffffffffffffffffffffffffffffffffffff1681565b60065481565b6000600554905090565b6060806060600360008573ffffffffffffffffffffffffffffffffffffffff1673ffffffffffffffffffffffffffffffffffffffff16815260200190815260200160002060003373ffffffffffffffffffffffffffffffffffffffff1673ffffffffffffffffffffffffffffffffffffffff16815260200190815260200160002060009054906101000a900460ff16610811576040517f08c379a00000000000000000000000000000000000000000000000000000000081526004016108089061161f565b60405180910390fd5b6000600260008673ffffffffffffffffffffffffffffffffffffffff1673ffffffffffffffffffffffffffffffffffffffff168152602001908152602001600020905080600001816001018260020182805461086c90611287565b80601f016020809104026020016040519081016040528092919081815260200182805461089890611287565b80156108e55780601f106108ba576101008083540402835291602001916108e5565b820191906000526020600020905b8154815290600101906020018083116108c857829003601f168201915b505050505092508180546108f890611287565b80601f016020809104026020016040519081016040528092919081815260200182805461092490611287565b80156109715780601f1061094657610100808354040283529160200191610971565b820191906000526020600020905b81548152906001019060200180831161095457829003601f168201915b5050505050915080805461098490611287565b80601f01602080910402602001604051908101604052809291908181526020018280546109b090611287565b80156109fd5780601f106109d2576101008083540402835291602001916109fd565b820191906000526020600020905b8154815290600101906020018083116109e057829003601f168201915b50505050509050935093509350509193909250565b600460003373ffffffffffffffffffffffffffffffffffffffff1673ffffffffffffffffffffffffffffffffffffffff16815260200190815260200160002060009054906101000a900460ff1615610a6957600080fd5b6000600260003373ffffffffffffffffffffffffffffffffffffffff1673ffffffffffffffffffffffffffffffffffffffff168152602001908152602001600020905083816000019081610abd9190611464565b5082816001019081610acf9190611464565b5081816002019081610ae19190611464565b506001339080600181540180825580915050600190039060005260206000200160009091909190916101000a81548173ffffffffffffffffffffffffffffffffffffffff021916908373ffffffffffffffffffffffffffffffffffffffff1602179055506001600460003373ffffffffffffffffffffffffffffffffffffffff1673ffffffffffffffffffffffffffffffffffffffff16815260200190815260200160002060006101000a81548160ff0219169083151502179055506001600360003373ffffffffffffffffffffffffffffffffffffffff1673ffffffffffffffffffffffffffffffffffffffff16815260200190815260200160002060003373ffffffffffffffffffffffffffffffffffffffff1673ffffffffffffffffffffffffffffffffffffffff16815260200190815260200160002060006101000a81548160ff02191690831515021790555060056000815480929190610c4590611565565b91905055503373ffffffffffffffffffffffffffffffffffffffff167fe3b9cd36563879b33da58985c5f99249a9f5e2ba47f28abf9d4d6da112d72b5e858585604051610c949392919061117a565b60405180910390a250505050565b6000604051905090565b600080fd5b600080fd5b600073ffffffffffffffffffffffffffffffffffffffff82169050919050565b6000610ce182610cb6565b9050919050565b610cf181610cd6565b8114610cfc57600080fd5b50565b600081359050610d0e81610ce8565b92915050565b600060208284031215610d2a57610d29610cac565b5b6000610d3884828501610cff565b91505092915050565b60008115159050919050565b610d5681610d41565b82525050565b6000602082019050610d716000830184610d4d565b92915050565b600081519050919050565b600082825260208201905092915050565b6000819050602082019050919050565b610dac81610cd6565b82525050565b6000610dbe8383610da3565b60208301905092915050565b6000602082019050919050565b6000610de282610d77565b610dec8185610d82565b9350610df783610d93565b8060005b83811015610e28578151610e0f8882610db2565b9750610e1a83610dca565b925050600181019050610dfb565b5085935050505092915050565b60006020820190508181036000830152610e4f8184610dd7565b905092915050565b600080fd5b600080fd5b6000601f19601f8301169050919050565b7f4e487b7100000000000000000000000000000000000000000000000000000000600052604160045260246000fd5b610eaa82610e61565b810181811067ffffffffffffffff82111715610ec957610ec8610e72565b5b80604052505050565b6000610edc610ca2565b9050610ee88282610ea1565b919050565b600067ffffffffffffffff821115610f0857610f07610e72565b5b610f1182610e61565b9050602081019050919050565b82818337600083830152505050565b6000610f40610f3b84610eed565b610ed2565b905082815260208101848484011115610f5c57610f5b610e5c565b5b610f67848285610f1e565b509392505050565b600082601f830112610f8457610f83610e57565b5b8135610f94848260208601610f2d565b91505092915050565b600080600060608486031215610fb657610fb5610cac565b5b600084013567ffffffffffffffff811115610fd457610fd3610cb1565b5b610fe086828701610f6f565b935050602084013567ffffffffffffffff81111561100157611000610cb1565b5b61100d86828701610f6f565b925050604084013567ffffffffffffffff81111561102e5761102d610cb1565b5b61103a86828701610f6f565b9150509250925092565b6000819050919050565b61105781611044565b82525050565b6000602082019050611072600083018461104e565b92915050565b61108181610cd6565b82525050565b600060208201905061109c6000830184611078565b92915050565b6110ab81611044565b81146110b657600080fd5b50565b6000813590506110c8816110a2565b92915050565b6000602082840312156110e4576110e3610cac565b5b60006110f2848285016110b9565b91505092915050565b600081519050919050565b600082825260208201905092915050565b60005b8381101561113557808201518184015260208101905061111a565b60008484015250505050565b600061114c826110fb565b6111568185611106565b9350611166818560208601611117565b61116f81610e61565b840191505092915050565b600060608201905081810360008301526111948186611141565b905081810360208301526111a88185611141565b905081810360408301526111bc8184611141565b9050949350505050565b7f4f6e6c7920726567697374657265642070617469656e74732063616e2063616c60008201527f6c20746869732066756e6374696f6e0000000000000000000000000000000000602082015250565b6000611222602f83611106565b915061122d826111c6565b604082019050919050565b6000602082019050818103600083015261125181611215565b9050919050565b7f4e487b7100000000000000000000000000000000000000000000000000000000600052602260045260246000fd5b6000600282049050600182168061129f57607f821691505b6020821081036112b2576112b1611258565b5b50919050565b60008190508160005260206000209050919050565b60006020601f8301049050919050565b600082821b905092915050565b60006008830261131a7fffffffffffffffffffffffffffffffffffffffffffffffffffffffffffffffff826112dd565b61132486836112dd565b95508019841693508086168417925050509392505050565b6000819050919050565b600061136161135c61135784611044565b61133c565b611044565b9050919050565b6000819050919050565b61137b83611346565b61138f61138782611368565b8484546112ea565b825550505050565b600090565b6113a4611397565b6113af818484611372565b505050565b5b818110156113d3576113c860008261139c565b6001810190506113b5565b5050565b601f821115611418576113e9816112b8565b6113f2846112cd565b81016020851015611401578190505b61141561140d856112cd565b8301826113b4565b50505b505050565b600082821c905092915050565b600061143b6000198460080261141d565b1980831691505092915050565b6000611454838361142a565b9150826002028217905092915050565b61146d826110fb565b67ffffffffffffffff81111561148657611485610e72565b5b6114908254611287565b61149b8282856113d7565b600060209050601f8311600181146114ce57600084156114bc578287015190505b6114c68582611448565b86555061152e565b601f1984166114dc866112b8565b60005b82811015611504578489015182556001820191506020850194506020810190506114df565b86831015611521578489015161151d601f89168261142a565b8355505b6001600288020188555050505b505050505050565b7f4e487b7100000000000000000000000000000000000000000000000000000000600052601160045260246000fd5b600061157082611044565b91507fffffffffffffffffffffffffffffffffffffffffffffffffffffffffffffffff82036115a2576115a1611536565b5b600182019050919050565b7f4e6f7420617070726f76656420746f206163636573732070617469656e74206460008201527f657461696c732e00000000000000000000000000000000000000000000000000602082015250565b6000611609602783611106565b9150611614826115ad565b604082019050919050565b60006020820190508181036000830152611638816115fc565b905091905056fea2646970667358221220362ba215feec5185e704feeae93d4edae0a6f843f1f9782d38422001a342d53664736f6c63430008110033",
  "linkReferences": {},
  "deployedLinkReferences": {}
}