{
  "_format": "hh-sol-artifact-1",
  "contractName": "patient",
  "sourceName": "contracts/patient.sol",
  "abi": [
    {
      "inputs": [],
      "name": "Patient",
      "outputs": [],
      "stateMutability": "nonpayable",
      "type": "function"
    },
    {
      "inputs": [
        {
          "internalType": "address",
          "name": "_address",
          "type": "address"
        }
      ],
      "name": "RevokePermission",
      "outputs": [
        {
          "internalType": "bool",
          "name": "success",
          "type": "bool"
        }
      ],
      "stateMutability": "nonpayable",
      "type": "function"
    },
    {
      "inputs": [
        {
          "internalType": "string",
          "name": "_ic",
          "type": "string"
        },
        {
          "internalType": "string",
          "name": "_name",
          "type": "string"
        }
      ],
      "name": "editDetails",
      "outputs": [],
      "stateMutability": "nonpayable",
      "type": "function"
    },
    {
      "inputs": [],
      "name": "getPatientCount",
      "outputs": [
        {
          "internalType": "uint256",
          "name": "",
          "type": "uint256"
        }
      ],
      "stateMutability": "view",
      "type": "function"
    },
    {
      "inputs": [],
      "name": "getPatients",
      "outputs": [
        {
          "internalType": "address[]",
          "name": "",
          "type": "address[]"
        }
      ],
      "stateMutability": "view",
      "type": "function"
    },
    {
      "inputs": [],
      "name": "getPermissionGrantedCount",
      "outputs": [
        {
          "internalType": "uint256",
          "name": "",
          "type": "uint256"
        }
      ],
      "stateMutability": "view",
      "type": "function"
    },
    {
      "inputs": [
        {
          "internalType": "address",
          "name": "_address",
          "type": "address"
        }
      ],
      "name": "givePermission",
      "outputs": [
        {
          "internalType": "bool",
          "name": "success",
          "type": "bool"
        }
      ],
      "stateMutability": "nonpayable",
      "type": "function"
    },
    {
      "inputs": [],
      "name": "owner",
      "outputs": [
        {
          "internalType": "address",
          "name": "",
          "type": "address"
        }
      ],
      "stateMutability": "view",
      "type": "function"
    },
    {
      "inputs": [],
      "name": "patientCount",
      "outputs": [
        {
          "internalType": "uint256",
          "name": "",
          "type": "uint256"
        }
      ],
      "stateMutability": "view",
      "type": "function"
    },
    {
      "inputs": [
        {
          "internalType": "uint256",
          "name": "",
          "type": "uint256"
        }
      ],
      "name": "patientList",
      "outputs": [
        {
          "internalType": "address",
          "name": "",
          "type": "address"
        }
      ],
      "stateMutability": "view",
      "type": "function"
    },
    {
      "inputs": [],
      "name": "permissionGrantedCount",
      "outputs": [
        {
          "internalType": "uint256",
          "name": "",
          "type": "uint256"
        }
      ],
      "stateMutability": "view",
      "type": "function"
    },
    {
      "inputs": [
        {
          "internalType": "string",
          "name": "_ic",
          "type": "string"
        },
        {
          "internalType": "string",
          "name": "_name",
          "type": "string"
        }
      ],
      "name": "setDetails",
      "outputs": [],
      "stateMutability": "nonpayable",
      "type": "function"
    }
  ],
  "bytecode": "0x60806040526000600555600060065534801561001a57600080fd5b50610f968061002a6000396000f3fe608060405234801561001057600080fd5b50600436106100b45760003560e01c8063ac40c9a811610071578063ac40c9a814610191578063ad3bd1d51461019b578063b7b090ee146101b7578063babb1d41146101d3578063c0cb24ba14610203578063c190665b14610221576100b4565b806302516abd146100b957806312ad1c37146100e957806324c24b2b146101075780633d391f70146101255780638da5cb5b14610155578063a0303c4114610173575b600080fd5b6100d360048036038101906100ce9190610848565b61023f565b6040516100e09190610890565b60405180910390f35b6100f16102de565b6040516100fe9190610969565b60405180910390f35b61010f61036c565b60405161011c91906109a4565b60405180910390f35b61013f600480360381019061013a9190610848565b610376565b60405161014c9190610890565b60405180910390f35b61015d61042e565b60405161016a91906109ce565b60405180910390f35b61017b610452565b60405161018891906109a4565b60405180910390f35b610199610458565b005b6101b560048036038101906101b09190610b2f565b61049a565b005b6101d160048036038101906101cc9190610b2f565b61055c565b005b6101ed60048036038101906101e89190610bd3565b610787565b6040516101fa91906109ce565b60405180910390f35b61020b6107c6565b60405161021891906109a4565b60405180910390f35b6102296107cc565b60405161023691906109a4565b60405180910390f35b600080600360003373ffffffffffffffffffffffffffffffffffffffff1673ffffffffffffffffffffffffffffffffffffffff16815260200190815260200160002060008473ffffffffffffffffffffffffffffffffffffffff1673ffffffffffffffffffffffffffffffffffffffff16815260200190815260200160002060006101000a81548160ff02191690831515021790555060019050919050565b6060600180548060200260200160405190810160405280929190818152602001828054801561036257602002820191906000526020600020905b8160009054906101000a900473ffffffffffffffffffffffffffffffffffffffff1673ffffffffffffffffffffffffffffffffffffffff1681526020019060010190808311610318575b5050505050905090565b6000600654905090565b60006001600360003373ffffffffffffffffffffffffffffffffffffffff1673ffffffffffffffffffffffffffffffffffffffff16815260200190815260200160002060008473ffffffffffffffffffffffffffffffffffffffff1673ffffffffffffffffffffffffffffffffffffffff16815260200190815260200160002060006101000a81548160ff0219169083151502179055506006600081548092919061042090610c2f565b919050555060019050919050565b60008054906101000a900473ffffffffffffffffffffffffffffffffffffffff1681565b60055481565b336000806101000a81548173ffffffffffffffffffffffffffffffffffffffff021916908373ffffffffffffffffffffffffffffffffffffffff160217905550565b600460003373ffffffffffffffffffffffffffffffffffffffff1673ffffffffffffffffffffffffffffffffffffffff16815260200190815260200160002060009054906101000a900460ff166104f057600080fd5b6000600260003373ffffffffffffffffffffffffffffffffffffffff1673ffffffffffffffffffffffffffffffffffffffff1681526020019081526020016000209050828160000190816105449190610e8e565b50818160010190816105569190610e8e565b50505050565b600460003373ffffffffffffffffffffffffffffffffffffffff1673ffffffffffffffffffffffffffffffffffffffff16815260200190815260200160002060009054906101000a900460ff16156105b357600080fd5b6000600260003373ffffffffffffffffffffffffffffffffffffffff1673ffffffffffffffffffffffffffffffffffffffff1681526020019081526020016000209050828160000190816106079190610e8e565b50818160010190816106199190610e8e565b506001339080600181540180825580915050600190039060005260206000200160009091909190916101000a81548173ffffffffffffffffffffffffffffffffffffffff021916908373ffffffffffffffffffffffffffffffffffffffff1602179055506001600460003373ffffffffffffffffffffffffffffffffffffffff1673ffffffffffffffffffffffffffffffffffffffff16815260200190815260200160002060006101000a81548160ff0219169083151502179055506001600360003373ffffffffffffffffffffffffffffffffffffffff1673ffffffffffffffffffffffffffffffffffffffff16815260200190815260200160002060003373ffffffffffffffffffffffffffffffffffffffff1673ffffffffffffffffffffffffffffffffffffffff16815260200190815260200160002060006101000a81548160ff0219169083151502179055506005600081548092919061077d90610c2f565b9190505550505050565b6001818154811061079757600080fd5b906000526020600020016000915054906101000a900473ffffffffffffffffffffffffffffffffffffffff1681565b60065481565b6000600554905090565b6000604051905090565b600080fd5b600080fd5b600073ffffffffffffffffffffffffffffffffffffffff82169050919050565b6000610815826107ea565b9050919050565b6108258161080a565b811461083057600080fd5b50565b6000813590506108428161081c565b92915050565b60006020828403121561085e5761085d6107e0565b5b600061086c84828501610833565b91505092915050565b60008115159050919050565b61088a81610875565b82525050565b60006020820190506108a56000830184610881565b92915050565b600081519050919050565b600082825260208201905092915050565b6000819050602082019050919050565b6108e08161080a565b82525050565b60006108f283836108d7565b60208301905092915050565b6000602082019050919050565b6000610916826108ab565b61092081856108b6565b935061092b836108c7565b8060005b8381101561095c57815161094388826108e6565b975061094e836108fe565b92505060018101905061092f565b5085935050505092915050565b60006020820190508181036000830152610983818461090b565b905092915050565b6000819050919050565b61099e8161098b565b82525050565b60006020820190506109b96000830184610995565b92915050565b6109c88161080a565b82525050565b60006020820190506109e360008301846109bf565b92915050565b600080fd5b600080fd5b6000601f19601f8301169050919050565b7f4e487b7100000000000000000000000000000000000000000000000000000000600052604160045260246000fd5b610a3c826109f3565b810181811067ffffffffffffffff82111715610a5b57610a5a610a04565b5b80604052505050565b6000610a6e6107d6565b9050610a7a8282610a33565b919050565b600067ffffffffffffffff821115610a9a57610a99610a04565b5b610aa3826109f3565b9050602081019050919050565b82818337600083830152505050565b6000610ad2610acd84610a7f565b610a64565b905082815260208101848484011115610aee57610aed6109ee565b5b610af9848285610ab0565b509392505050565b600082601f830112610b1657610b156109e9565b5b8135610b26848260208601610abf565b91505092915050565b60008060408385031215610b4657610b456107e0565b5b600083013567ffffffffffffffff811115610b6457610b636107e5565b5b610b7085828601610b01565b925050602083013567ffffffffffffffff811115610b9157610b906107e5565b5b610b9d85828601610b01565b9150509250929050565b610bb08161098b565b8114610bbb57600080fd5b50565b600081359050610bcd81610ba7565b92915050565b600060208284031215610be957610be86107e0565b5b6000610bf784828501610bbe565b91505092915050565b7f4e487b7100000000000000000000000000000000000000000000000000000000600052601160045260246000fd5b6000610c3a8261098b565b91507fffffffffffffffffffffffffffffffffffffffffffffffffffffffffffffffff8203610c6c57610c6b610c00565b5b600182019050919050565b600081519050919050565b7f4e487b7100000000000000000000000000000000000000000000000000000000600052602260045260246000fd5b60006002820490506001821680610cc957607f821691505b602082108103610cdc57610cdb610c82565b5b50919050565b60008190508160005260206000209050919050565b60006020601f8301049050919050565b600082821b905092915050565b600060088302610d447fffffffffffffffffffffffffffffffffffffffffffffffffffffffffffffffff82610d07565b610d4e8683610d07565b95508019841693508086168417925050509392505050565b6000819050919050565b6000610d8b610d86610d818461098b565b610d66565b61098b565b9050919050565b6000819050919050565b610da583610d70565b610db9610db182610d92565b848454610d14565b825550505050565b600090565b610dce610dc1565b610dd9818484610d9c565b505050565b5b81811015610dfd57610df2600082610dc6565b600181019050610ddf565b5050565b601f821115610e4257610e1381610ce2565b610e1c84610cf7565b81016020851015610e2b578190505b610e3f610e3785610cf7565b830182610dde565b50505b505050565b600082821c905092915050565b6000610e6560001984600802610e47565b1980831691505092915050565b6000610e7e8383610e54565b9150826002028217905092915050565b610e9782610c77565b67ffffffffffffffff811115610eb057610eaf610a04565b5b610eba8254610cb1565b610ec5828285610e01565b600060209050601f831160018114610ef85760008415610ee6578287015190505b610ef08582610e72565b865550610f58565b601f198416610f0686610ce2565b60005b82811015610f2e57848901518255600182019150602085019450602081019050610f09565b86831015610f4b5784890151610f47601f891682610e54565b8355505b6001600288020188555050505b50505050505056fea26469706673582212202480a3af98b7a6b133f1a2354f064b682141ceaf8c1524033a3badff28a4a9f164736f6c63430008110033",
  "linkReferences": {},
  "deployedLinkReferences": {}
}