{
  "_format": "hh-sol-artifact-1",
  "contractName": "doctor",
  "sourceName": "contracts/doctor.sol",
  "abi": [
    {
      "inputs": [],
      "name": "Doctor",
      "outputs": [],
      "stateMutability": "nonpayable",
      "type": "function"
    },
    {
      "inputs": [],
      "name": "doctorCount",
      "outputs": [
        {
          "internalType": "uint256",
          "name": "",
          "type": "uint256"
        }
      ],
      "stateMutability": "view",
      "type": "function"
    },
    {
      "inputs": [
        {
          "internalType": "uint256",
          "name": "",
          "type": "uint256"
        }
      ],
      "name": "doctorList",
      "outputs": [
        {
          "internalType": "address",
          "name": "",
          "type": "address"
        }
      ],
      "stateMutability": "view",
      "type": "function"
    },
    {
      "inputs": [
        {
          "internalType": "string",
          "name": "_ic",
          "type": "string"
        },
        {
          "internalType": "string",
          "name": "_name",
          "type": "string"
        },
        {
          "internalType": "string",
          "name": "_qualification",
          "type": "string"
        }
      ],
      "name": "editDoctor",
      "outputs": [],
      "stateMutability": "nonpayable",
      "type": "function"
    },
    {
      "inputs": [],
      "name": "getDoctorCount",
      "outputs": [
        {
          "internalType": "uint256",
          "name": "",
          "type": "uint256"
        }
      ],
      "stateMutability": "view",
      "type": "function"
    },
    {
      "inputs": [],
      "name": "getDoctors",
      "outputs": [
        {
          "internalType": "address[]",
          "name": "",
          "type": "address[]"
        }
      ],
      "stateMutability": "view",
      "type": "function"
    },
    {
      "inputs": [],
      "name": "owner",
      "outputs": [
        {
          "internalType": "address",
          "name": "",
          "type": "address"
        }
      ],
      "stateMutability": "view",
      "type": "function"
    },
    {
      "inputs": [
        {
          "internalType": "string",
          "name": "_ic",
          "type": "string"
        },
        {
          "internalType": "string",
          "name": "_name",
          "type": "string"
        },
        {
          "internalType": "string",
          "name": "_qualification",
          "type": "string"
        }
      ],
      "name": "setDoctor",
      "outputs": [],
      "stateMutability": "nonpayable",
      "type": "function"
    }
  ],
  "bytecode": "0x6080604052600060045534801561001557600080fd5b50610d1e806100256000396000f3fe608060405234801561001057600080fd5b50600436106100885760003560e01c806379111c1c1161005b57806379111c1c146101135780638da5cb5b14610131578063ad0ad0501461014f578063b13d5d941461015957610088565b8063127ca4b41461008d578063292998bd146100bd578063313f5ecc146100d957806378522bc4146100f5575b600080fd5b6100a760048036038101906100a29190610608565b610177565b6040516100b49190610676565b60405180910390f35b6100d760048036038101906100d291906107d7565b6101b6565b005b6100f360048036038101906100ee91906107d7565b6102ce565b005b6100fd6104ba565b60405161010a919061088d565b60405180910390f35b61011b6104c0565b604051610128919061088d565b60405180910390f35b6101396104ca565b6040516101469190610676565b60405180910390f35b6101576104ee565b005b610161610530565b60405161016e9190610966565b60405180910390f35b6001818154811061018757600080fd5b906000526020600020016000915054906101000a900473ffffffffffffffffffffffffffffffffffffffff1681565b600360003373ffffffffffffffffffffffffffffffffffffffff1673ffffffffffffffffffffffffffffffffffffffff16815260200190815260200160002060009054906101000a900460ff1661020c57600080fd5b6000600260003373ffffffffffffffffffffffffffffffffffffffff1673ffffffffffffffffffffffffffffffffffffffff1681526020019081526020016000209050838160000190816102609190610b9f565b50828160010190816102729190610b9f565b50818160030190816102849190610b9f565b50338160040160006101000a81548173ffffffffffffffffffffffffffffffffffffffff021916908373ffffffffffffffffffffffffffffffffffffffff16021790555050505050565b600360003373ffffffffffffffffffffffffffffffffffffffff1673ffffffffffffffffffffffffffffffffffffffff16815260200190815260200160002060009054906101000a900460ff161561032557600080fd5b6000600260003373ffffffffffffffffffffffffffffffffffffffff1673ffffffffffffffffffffffffffffffffffffffff1681526020019081526020016000209050838160000190816103799190610b9f565b508281600101908161038b9190610b9f565b508181600301908161039d9190610b9f565b50338160040160006101000a81548173ffffffffffffffffffffffffffffffffffffffff021916908373ffffffffffffffffffffffffffffffffffffffff1602179055506001339080600181540180825580915050600190039060005260206000200160009091909190916101000a81548173ffffffffffffffffffffffffffffffffffffffff021916908373ffffffffffffffffffffffffffffffffffffffff1602179055506001600360003373ffffffffffffffffffffffffffffffffffffffff1673ffffffffffffffffffffffffffffffffffffffff16815260200190815260200160002060006101000a81548160ff021916908315150217905550600460008154809291906104af90610ca0565b919050555050505050565b60045481565b6000600454905090565b60008054906101000a900473ffffffffffffffffffffffffffffffffffffffff1681565b336000806101000a81548173ffffffffffffffffffffffffffffffffffffffff021916908373ffffffffffffffffffffffffffffffffffffffff160217905550565b606060018054806020026020016040519081016040528092919081815260200182805480156105b457602002820191906000526020600020905b8160009054906101000a900473ffffffffffffffffffffffffffffffffffffffff1673ffffffffffffffffffffffffffffffffffffffff168152602001906001019080831161056a575b5050505050905090565b6000604051905090565b600080fd5b600080fd5b6000819050919050565b6105e5816105d2565b81146105f057600080fd5b50565b600081359050610602816105dc565b92915050565b60006020828403121561061e5761061d6105c8565b5b600061062c848285016105f3565b91505092915050565b600073ffffffffffffffffffffffffffffffffffffffff82169050919050565b600061066082610635565b9050919050565b61067081610655565b82525050565b600060208201905061068b6000830184610667565b92915050565b600080fd5b600080fd5b6000601f19601f8301169050919050565b7f4e487b7100000000000000000000000000000000000000000000000000000000600052604160045260246000fd5b6106e48261069b565b810181811067ffffffffffffffff82111715610703576107026106ac565b5b80604052505050565b60006107166105be565b905061072282826106db565b919050565b600067ffffffffffffffff821115610742576107416106ac565b5b61074b8261069b565b9050602081019050919050565b82818337600083830152505050565b600061077a61077584610727565b61070c565b90508281526020810184848401111561079657610795610696565b5b6107a1848285610758565b509392505050565b600082601f8301126107be576107bd610691565b5b81356107ce848260208601610767565b91505092915050565b6000806000606084860312156107f0576107ef6105c8565b5b600084013567ffffffffffffffff81111561080e5761080d6105cd565b5b61081a868287016107a9565b935050602084013567ffffffffffffffff81111561083b5761083a6105cd565b5b610847868287016107a9565b925050604084013567ffffffffffffffff811115610868576108676105cd565b5b610874868287016107a9565b9150509250925092565b610887816105d2565b82525050565b60006020820190506108a2600083018461087e565b92915050565b600081519050919050565b600082825260208201905092915050565b6000819050602082019050919050565b6108dd81610655565b82525050565b60006108ef83836108d4565b60208301905092915050565b6000602082019050919050565b6000610913826108a8565b61091d81856108b3565b9350610928836108c4565b8060005b8381101561095957815161094088826108e3565b975061094b836108fb565b92505060018101905061092c565b5085935050505092915050565b600060208201905081810360008301526109808184610908565b905092915050565b600081519050919050565b7f4e487b7100000000000000000000000000000000000000000000000000000000600052602260045260246000fd5b600060028204905060018216806109da57607f821691505b6020821081036109ed576109ec610993565b5b50919050565b60008190508160005260206000209050919050565b60006020601f8301049050919050565b600082821b905092915050565b600060088302610a557fffffffffffffffffffffffffffffffffffffffffffffffffffffffffffffffff82610a18565b610a5f8683610a18565b95508019841693508086168417925050509392505050565b6000819050919050565b6000610a9c610a97610a92846105d2565b610a77565b6105d2565b9050919050565b6000819050919050565b610ab683610a81565b610aca610ac282610aa3565b848454610a25565b825550505050565b600090565b610adf610ad2565b610aea818484610aad565b505050565b5b81811015610b0e57610b03600082610ad7565b600181019050610af0565b5050565b601f821115610b5357610b24816109f3565b610b2d84610a08565b81016020851015610b3c578190505b610b50610b4885610a08565b830182610aef565b50505b505050565b600082821c905092915050565b6000610b7660001984600802610b58565b1980831691505092915050565b6000610b8f8383610b65565b9150826002028217905092915050565b610ba882610988565b67ffffffffffffffff811115610bc157610bc06106ac565b5b610bcb82546109c2565b610bd6828285610b12565b600060209050601f831160018114610c095760008415610bf7578287015190505b610c018582610b83565b865550610c69565b601f198416610c17866109f3565b60005b82811015610c3f57848901518255600182019150602085019450602081019050610c1a565b86831015610c5c5784890151610c58601f891682610b65565b8355505b6001600288020188555050505b505050505050565b7f4e487b7100000000000000000000000000000000000000000000000000000000600052601160045260246000fd5b6000610cab826105d2565b91507fffffffffffffffffffffffffffffffffffffffffffffffffffffffffffffffff8203610cdd57610cdc610c71565b5b60018201905091905056fea264697066735822122001ff5366700780d9da9cb75c8c86905625690fed8332411bf738f9b55cec6a7464736f6c63430008110033",
  "linkReferences": {},
  "deployedLinkReferences": {}
}